{
  "abi": [
    {
      "inputs": [
        {
          "internalType": "address",
          "name": "_ghoToken",
          "type": "address"
        },
        {
          "internalType": "address",
          "name": "_aaveGovernance",
          "type": "address"
        },
        {
          "internalType": "address",
          "name": "_bridge",
          "type": "address"
        }
      ],
      "stateMutability": "nonpayable",
      "type": "constructor"
    },
    {
      "inputs": [],
      "name": "UnauthorizedCaller",
      "type": "error"
    },
    {
      "anonymous": false,
      "inputs": [
        {
          "indexed": true,
          "internalType": "address",
          "name": "recipient",
          "type": "address"
        },
        {
          "indexed": false,
          "internalType": "uint256",
          "name": "amount",
          "type": "uint256"
        }
      ],
      "name": "AssetsBridged",
      "type": "event"
    },
    {
      "anonymous": false,
      "inputs": [
        {
          "indexed": true,
          "internalType": "address",
          "name": "previousOwner",
          "type": "address"
        },
        {
          "indexed": true,
          "internalType": "address",
          "name": "newOwner",
          "type": "address"
        }
      ],
      "name": "OwnershipTransferred",
      "type": "event"
    },
    {
      "inputs": [],
      "name": "aaveGovernance",
      "outputs": [
        {
          "internalType": "address",
          "name": "",
          "type": "address"
        }
      ],
      "stateMutability": "view",
      "type": "function"
    },
    {
      "inputs": [
        {
          "internalType": "uint128",
          "name": "mintLimit",
          "type": "uint128"
        },
        {
          "internalType": "string",
          "name": "label",
          "type": "string"
        }
      ],
      "name": "addFaciliator",
      "outputs": [],
      "stateMutability": "nonpayable",
      "type": "function"
    },
    {
      "inputs": [],
      "name": "bridge",
      "outputs": [
        {
          "internalType": "address",
          "name": "",
          "type": "address"
        }
      ],
      "stateMutability": "view",
      "type": "function"
    },
    {
      "inputs": [],
      "name": "ghoToken",
      "outputs": [
        {
          "internalType": "address",
          "name": "",
          "type": "address"
        }
      ],
      "stateMutability": "view",
      "type": "function"
    },
    {
      "inputs": [
        {
          "internalType": "address",
          "name": "recipient",
          "type": "address"
        },
        {
          "internalType": "uint256",
          "name": "amount",
          "type": "uint256"
        }
      ],
      "name": "onAxelarGmp",
      "outputs": [],
      "stateMutability": "nonpayable",
      "type": "function"
    },
    {
      "inputs": [],
      "name": "owner",
      "outputs": [
        {
          "internalType": "address",
          "name": "",
          "type": "address"
        }
      ],
      "stateMutability": "view",
      "type": "function"
    },
    {
      "inputs": [],
      "name": "renounceOwnership",
      "outputs": [],
      "stateMutability": "nonpayable",
      "type": "function"
    },
    {
      "inputs": [
        {
          "internalType": "address",
          "name": "_aaveGovernance",
          "type": "address"
        }
      ],
      "name": "setAaveGov",
      "outputs": [],
      "stateMutability": "nonpayable",
      "type": "function"
    },
    {
      "inputs": [
        {
          "internalType": "address",
          "name": "_bridge",
          "type": "address"
        }
      ],
      "name": "setBridgeAddress",
      "outputs": [],
      "stateMutability": "nonpayable",
      "type": "function"
    },
    {
      "inputs": [
        {
          "internalType": "address",
          "name": "newOwner",
          "type": "address"
        }
      ],
      "name": "transferOwnership",
      "outputs": [],
      "stateMutability": "nonpayable",
      "type": "function"
    },
    {
      "inputs": [
        {
          "internalType": "uint128",
          "name": "newLimit",
          "type": "uint128"
        }
      ],
      "name": "updateMintLimit",
      "outputs": [],
      "stateMutability": "nonpayable",
      "type": "function"
    }
  ],
  "bytecode": {
    "object": "0x608060405234801561001057600080fd5b5060405161083338038061083383398101604081905261002f916100e6565b6100383361007a565b600180546001600160a01b039485166001600160a01b031991821617909155600280549385169382169390931790925560038054919093169116179055610129565b600080546001600160a01b038381166001600160a01b0319831681178455604051919092169283917f8be0079c531659141344cd1fd0a4f28419497f9722a3daafe3b4186f6b6457e09190a35050565b80516001600160a01b03811681146100e157600080fd5b919050565b6000806000606084860312156100fb57600080fd5b610104846100ca565b9250610112602085016100ca565b9150610120604085016100ca565b90509250925092565b6106fb806101386000396000f3fe608060405234801561001057600080fd5b50600436106100a95760003560e01c80638aded9d0116100715780638aded9d0146101205780638da5cb5b14610133578063ca0b0a6c14610144578063defdb73a14610157578063e78cea921461016a578063f2fde38b1461017d57600080fd5b806341b71d49146100ae5780635996db91146100dd5780636af74a1a146100f0578063715018a6146101055780637f5a22f91461010d575b600080fd5b6002546100c1906001600160a01b031681565b6040516001600160a01b03909116815260200160405180910390f35b6001546100c1906001600160a01b031681565b6101036100fe366004610571565b610190565b005b61010361027d565b61010361011b3660046105aa565b610291565b61010361012e3660046105aa565b6102bb565b6000546001600160a01b03166100c1565b6101036101523660046105c5565b6102e5565b6101036101653660046105ef565b6103bd565b6003546100c1906001600160a01b031681565b61010361018b3660046105aa565b610432565b6002546001600160a01b031633146101bb57604051635c427cd960e01b815260040160405180910390fd5b6000816001600160801b03161161020e5760405162461bcd60e51b81526020600482015260126024820152711253959053125117d352539517d31253525560721b60448201526064015b60405180910390fd5b60015460405163af93df5760e01b81523060048201526001600160801b03831660248201526001600160a01b039091169063af93df5790604401600060405180830381600087803b15801561026257600080fd5b505af1158015610276573d6000803e3d6000fd5b5050505050565b6102856104ab565b61028f6000610505565b565b6102996104ab565b600380546001600160a01b0319166001600160a01b0392909216919091179055565b6102c36104ab565b600280546001600160a01b0319166001600160a01b0392909216919091179055565b6003546001600160a01b0316331461031057604051635c427cd960e01b815260040160405180910390fd5b6001546040516340c10f1960e01b81526001600160a01b03848116600483015260248201849052909116906340c10f1990604401600060405180830381600087803b15801561035e57600080fd5b505af1158015610372573d6000803e3d6000fd5b50505050816001600160a01b03167f0d53ae7024d83f2b5020a852cacfc94e7bc7b38589bfa80ac7ad78af47be5480826040516103b191815260200190565b60405180910390a25050565b6103c56104ab565b600154604051637fc24def60e01b81526001600160a01b0390911690637fc24def906103fb903090869086908990600401610672565b600060405180830381600087803b15801561041557600080fd5b505af1158015610429573d6000803e3d6000fd5b50505050505050565b61043a6104ab565b6001600160a01b03811661049f5760405162461bcd60e51b815260206004820152602660248201527f4f776e61626c653a206e6577206f776e657220697320746865207a65726f206160448201526564647265737360d01b6064820152608401610205565b6104a881610505565b50565b6000546001600160a01b0316331461028f5760405162461bcd60e51b815260206004820181905260248201527f4f776e61626c653a2063616c6c6572206973206e6f7420746865206f776e65726044820152606401610205565b600080546001600160a01b038381166001600160a01b0319831681178455604051919092169283917f8be0079c531659141344cd1fd0a4f28419497f9722a3daafe3b4186f6b6457e09190a35050565b80356001600160801b038116811461056c57600080fd5b919050565b60006020828403121561058357600080fd5b61058c82610555565b9392505050565b80356001600160a01b038116811461056c57600080fd5b6000602082840312156105bc57600080fd5b61058c82610593565b600080604083850312156105d857600080fd5b6105e183610593565b946020939093013593505050565b60008060006040848603121561060457600080fd5b61060d84610555565b9250602084013567ffffffffffffffff8082111561062a57600080fd5b818601915086601f83011261063e57600080fd5b81358181111561064d57600080fd5b87602082850101111561065f57600080fd5b6020830194508093505050509250925092565b6001600160a01b038516815260606020820181905281018390528284608083013760006080848301015260006080601f19601f86011683010190506001600160801b03831660408301529594505050505056fea2646970667358221220320aefb069a2c3a86edf59a89eda66a268de6d237cedb66d92b5276a1165b79264736f6c634300080f0033",
    "linkReferences": {}
  },
  "methodIdentifiers": {
    "aaveGovernance()": "41b71d49",
    "addFaciliator(uint128,string)": "defdb73a",
    "bridge()": "e78cea92",
    "ghoToken()": "5996db91",
    "onAxelarGmp(address,uint256)": "ca0b0a6c",
    "owner()": "8da5cb5b",
    "renounceOwnership()": "715018a6",
    "setAaveGov(address)": "8aded9d0",
    "setBridgeAddress(address)": "7f5a22f9",
    "transferOwnership(address)": "f2fde38b",
    "updateMintLimit(uint128)": "6af74a1a"
  },
  "id": 0
}