{
  "abi": [
    {
      "inputs": [
        {
          "internalType": "address",
          "name": "_ghoToken",
          "type": "address"
        },
        {
          "internalType": "address",
          "name": "_aaveGovernance",
          "type": "address"
        },
        {
          "internalType": "address",
          "name": "_bridge",
          "type": "address"
        }
      ],
      "stateMutability": "nonpayable",
      "type": "constructor"
    },
    {
      "anonymous": false,
      "inputs": [
        {
          "indexed": true,
          "internalType": "address",
          "name": "previousOwner",
          "type": "address"
        },
        {
          "indexed": true,
          "internalType": "address",
          "name": "newOwner",
          "type": "address"
        }
      ],
      "name": "OwnershipTransferred",
      "type": "event"
    },
    {
      "inputs": [],
      "name": "aaveGovernance",
      "outputs": [
        {
          "internalType": "address",
          "name": "",
          "type": "address"
        }
      ],
      "stateMutability": "view",
      "type": "function"
    },
    {
      "inputs": [
        {
          "internalType": "uint128",
          "name": "mintLimit",
          "type": "uint128"
        },
        {
          "internalType": "string",
          "name": "label",
          "type": "string"
        }
      ],
      "name": "addFaciliator",
      "outputs": [],
      "stateMutability": "nonpayable",
      "type": "function"
    },
    {
      "inputs": [],
      "name": "bridge",
      "outputs": [
        {
          "internalType": "address",
          "name": "",
          "type": "address"
        }
      ],
      "stateMutability": "view",
      "type": "function"
    },
    {
      "inputs": [],
      "name": "ghoToken",
      "outputs": [
        {
          "internalType": "address",
          "name": "",
          "type": "address"
        }
      ],
      "stateMutability": "view",
      "type": "function"
    },
    {
      "inputs": [
        {
          "internalType": "address",
          "name": "recipient",
          "type": "address"
        },
        {
          "internalType": "uint256",
          "name": "amount",
          "type": "uint256"
        }
      ],
      "name": "onAxelarGmp",
      "outputs": [],
      "stateMutability": "nonpayable",
      "type": "function"
    },
    {
      "inputs": [],
      "name": "owner",
      "outputs": [
        {
          "internalType": "address",
          "name": "",
          "type": "address"
        }
      ],
      "stateMutability": "view",
      "type": "function"
    },
    {
      "inputs": [],
      "name": "renounceOwnership",
      "outputs": [],
      "stateMutability": "nonpayable",
      "type": "function"
    },
    {
      "inputs": [
        {
          "internalType": "address",
          "name": "newOwner",
          "type": "address"
        }
      ],
      "name": "transferOwnership",
      "outputs": [],
      "stateMutability": "nonpayable",
      "type": "function"
    },
    {
      "inputs": [
        {
          "internalType": "uint128",
          "name": "newLimit",
          "type": "uint128"
        }
      ],
      "name": "updateMintLimit",
      "outputs": [],
      "stateMutability": "nonpayable",
      "type": "function"
    }
  ],
  "bytecode": {
    "object": "0x608060405234801561001057600080fd5b506040516107c13803806107c183398101604081905261002f916100e6565b6100383361007a565b600180546001600160a01b039485166001600160a01b031991821617909155600280549385169382169390931790925560038054919093169116179055610129565b600080546001600160a01b038381166001600160a01b0319831681178455604051919092169283917f8be0079c531659141344cd1fd0a4f28419497f9722a3daafe3b4186f6b6457e09190a35050565b80516001600160a01b03811681146100e157600080fd5b919050565b6000806000606084860312156100fb57600080fd5b610104846100ca565b9250610112602085016100ca565b9150610120604085016100ca565b90509250925092565b610689806101386000396000f3fe608060405234801561001057600080fd5b50600436106100935760003560e01c80638da5cb5b116100665780638da5cb5b146100f7578063ca0b0a6c14610108578063defdb73a1461011b578063e78cea921461012e578063f2fde38b1461014157600080fd5b806341b71d49146100985780635996db91146100c75780636af74a1a146100da578063715018a6146100ef575b600080fd5b6002546100ab906001600160a01b031681565b6040516001600160a01b03909116815260200160405180910390f35b6001546100ab906001600160a01b031681565b6100ed6100e83660046104ff565b610154565b005b6100ed61027c565b6000546001600160a01b03166100ab565b6100ed610116366004610538565b610290565b6100ed610129366004610562565b61034b565b6003546100ab906001600160a01b031681565b6100ed61014f3660046105e5565b6103c0565b6002546001600160a01b031633146101bf5760405162461bcd60e51b815260206004820152602360248201527f6f6e6c79206161766520676f7665726e616e636520616c6c6f77656420746f206044820152621cd95d60ea1b60648201526084015b60405180910390fd5b6000816001600160801b03161161020d5760405162461bcd60e51b81526020600482015260126024820152711253959053125117d352539517d31253525560721b60448201526064016101b6565b60015460405163af93df5760e01b81523060048201526001600160801b03831660248201526001600160a01b039091169063af93df5790604401600060405180830381600087803b15801561026157600080fd5b505af1158015610275573d6000803e3d6000fd5b5050505050565b610284610439565b61028e6000610493565b565b6003546001600160a01b031633146102e15760405162461bcd60e51b81526020600482015260146024820152731bdb9b1e48189c9a5919d94818d85b8818d85b1b60621b60448201526064016101b6565b6001546040516340c10f1960e01b81526001600160a01b03848116600483015260248201849052909116906340c10f1990604401600060405180830381600087803b15801561032f57600080fd5b505af1158015610343573d6000803e3d6000fd5b505050505050565b610353610439565b600154604051637fc24def60e01b81526001600160a01b0390911690637fc24def90610389903090869086908990600401610600565b600060405180830381600087803b1580156103a357600080fd5b505af11580156103b7573d6000803e3d6000fd5b50505050505050565b6103c8610439565b6001600160a01b03811661042d5760405162461bcd60e51b815260206004820152602660248201527f4f776e61626c653a206e6577206f776e657220697320746865207a65726f206160448201526564647265737360d01b60648201526084016101b6565b61043681610493565b50565b6000546001600160a01b0316331461028e5760405162461bcd60e51b815260206004820181905260248201527f4f776e61626c653a2063616c6c6572206973206e6f7420746865206f776e657260448201526064016101b6565b600080546001600160a01b038381166001600160a01b0319831681178455604051919092169283917f8be0079c531659141344cd1fd0a4f28419497f9722a3daafe3b4186f6b6457e09190a35050565b80356001600160801b03811681146104fa57600080fd5b919050565b60006020828403121561051157600080fd5b61051a826104e3565b9392505050565b80356001600160a01b03811681146104fa57600080fd5b6000806040838503121561054b57600080fd5b61055483610521565b946020939093013593505050565b60008060006040848603121561057757600080fd5b610580846104e3565b9250602084013567ffffffffffffffff8082111561059d57600080fd5b818601915086601f8301126105b157600080fd5b8135818111156105c057600080fd5b8760208285010111156105d257600080fd5b6020830194508093505050509250925092565b6000602082840312156105f757600080fd5b61051a82610521565b6001600160a01b038516815260606020820181905281018390528284608083013760006080848301015260006080601f19601f86011683010190506001600160801b03831660408301529594505050505056fea26469706673582212203d6100963e9c99bc1a63d144e4c8f738c10e103c07101edd28214df24d14a8f064736f6c634300080f0033",
    "linkReferences": {}
  },
  "methodIdentifiers": {
    "aaveGovernance()": "41b71d49",
    "addFaciliator(uint128,string)": "defdb73a",
    "bridge()": "e78cea92",
    "ghoToken()": "5996db91",
    "onAxelarGmp(address,uint256)": "ca0b0a6c",
    "owner()": "8da5cb5b",
    "renounceOwnership()": "715018a6",
    "transferOwnership(address)": "f2fde38b",
    "updateMintLimit(uint128)": "6af74a1a"
  },
  "id": 0
}