{
  "abi": [
    {
      "inputs": [
        {
          "internalType": "address",
          "name": "_ghoToken",
          "type": "address"
        },
        {
          "internalType": "address",
          "name": "_aaveGovernance",
          "type": "address"
        },
        {
          "internalType": "address",
          "name": "_bridge",
          "type": "address"
        }
      ],
      "stateMutability": "nonpayable",
      "type": "constructor"
    },
    {
      "inputs": [],
      "name": "UnauthorizedCaller",
      "type": "error"
    },
    {
      "anonymous": false,
      "inputs": [
        {
          "indexed": true,
          "internalType": "address",
          "name": "recipient",
          "type": "address"
        },
        {
          "indexed": false,
          "internalType": "uint256",
          "name": "amount",
          "type": "uint256"
        }
      ],
      "name": "AssetsBridged",
      "type": "event"
    },
    {
      "anonymous": false,
      "inputs": [
        {
          "indexed": false,
          "internalType": "uint256",
          "name": "amount",
          "type": "uint256"
        }
      ],
      "name": "GHOBurned",
      "type": "event"
    },
    {
      "anonymous": false,
      "inputs": [
        {
          "indexed": true,
          "internalType": "address",
          "name": "previousOwner",
          "type": "address"
        },
        {
          "indexed": true,
          "internalType": "address",
          "name": "newOwner",
          "type": "address"
        }
      ],
      "name": "OwnershipTransferred",
      "type": "event"
    },
    {
      "inputs": [],
      "name": "aaveGovernance",
      "outputs": [
        {
          "internalType": "address",
          "name": "",
          "type": "address"
        }
      ],
      "stateMutability": "view",
      "type": "function"
    },
    {
      "inputs": [
        {
          "internalType": "uint128",
          "name": "mintLimit",
          "type": "uint128"
        },
        {
          "internalType": "string",
          "name": "label",
          "type": "string"
        }
      ],
      "name": "addFaciliator",
      "outputs": [],
      "stateMutability": "nonpayable",
      "type": "function"
    },
    {
      "inputs": [],
      "name": "bridge",
      "outputs": [
        {
          "internalType": "address",
          "name": "",
          "type": "address"
        }
      ],
      "stateMutability": "view",
      "type": "function"
    },
    {
      "inputs": [
        {
          "internalType": "uint256",
          "name": "amount",
          "type": "uint256"
        }
      ],
      "name": "burn",
      "outputs": [],
      "stateMutability": "nonpayable",
      "type": "function"
    },
    {
      "inputs": [],
      "name": "ghoToken",
      "outputs": [
        {
          "internalType": "address",
          "name": "",
          "type": "address"
        }
      ],
      "stateMutability": "view",
      "type": "function"
    },
    {
      "inputs": [
        {
          "internalType": "address",
          "name": "recipient",
          "type": "address"
        },
        {
          "internalType": "uint256",
          "name": "amount",
          "type": "uint256"
        }
      ],
      "name": "onAxelarGmp",
      "outputs": [],
      "stateMutability": "nonpayable",
      "type": "function"
    },
    {
      "inputs": [],
      "name": "owner",
      "outputs": [
        {
          "internalType": "address",
          "name": "",
          "type": "address"
        }
      ],
      "stateMutability": "view",
      "type": "function"
    },
    {
      "inputs": [],
      "name": "renounceOwnership",
      "outputs": [],
      "stateMutability": "nonpayable",
      "type": "function"
    },
    {
      "inputs": [
        {
          "internalType": "address",
          "name": "_aaveGovernance",
          "type": "address"
        }
      ],
      "name": "setAaveGov",
      "outputs": [],
      "stateMutability": "nonpayable",
      "type": "function"
    },
    {
      "inputs": [
        {
          "internalType": "address",
          "name": "_bridge",
          "type": "address"
        }
      ],
      "name": "setBridgeAddress",
      "outputs": [],
      "stateMutability": "nonpayable",
      "type": "function"
    },
    {
      "inputs": [
        {
          "internalType": "address",
          "name": "newOwner",
          "type": "address"
        }
      ],
      "name": "transferOwnership",
      "outputs": [],
      "stateMutability": "nonpayable",
      "type": "function"
    },
    {
      "inputs": [
        {
          "internalType": "uint128",
          "name": "newLimit",
          "type": "uint128"
        }
      ],
      "name": "updateMintLimit",
      "outputs": [],
      "stateMutability": "nonpayable",
      "type": "function"
    }
  ],
  "bytecode": {
    "object": "0x608060405234801561001057600080fd5b506040516109a23803806109a283398101604081905261002f916100e6565b6100383361007a565b600180546001600160a01b039485166001600160a01b031991821617909155600280549385169382169390931790925560038054919093169116179055610129565b600080546001600160a01b038381166001600160a01b0319831681178455604051919092169283917f8be0079c531659141344cd1fd0a4f28419497f9722a3daafe3b4186f6b6457e09190a35050565b80516001600160a01b03811681146100e157600080fd5b919050565b6000806000606084860312156100fb57600080fd5b610104846100ca565b9250610112602085016100ca565b9150610120604085016100ca565b90509250925092565b61086a806101386000396000f3fe608060405234801561001057600080fd5b50600436106100b45760003560e01c80638aded9d0116100715780638aded9d01461013e5780638da5cb5b14610151578063ca0b0a6c14610162578063defdb73a14610175578063e78cea9214610188578063f2fde38b1461019b57600080fd5b806341b71d49146100b957806342966c68146100e85780635996db91146100fd5780636af74a1a14610110578063715018a6146101235780637f5a22f91461012b575b600080fd5b6002546100cc906001600160a01b031681565b6040516001600160a01b03909116815260200160405180910390f35b6100fb6100f6366004610689565b6101ae565b005b6001546100cc906001600160a01b031681565b6100fb61011e3660046106be565b6102c4565b6100fb6103b1565b6100fb6101393660046106f7565b6103c5565b6100fb61014c3660046106f7565b6103ef565b6000546001600160a01b03166100cc565b6100fb610170366004610712565b610419565b6100fb61018336600461073c565b6104f1565b6003546100cc906001600160a01b031681565b6100fb6101a93660046106f7565b610566565b6001546040516323b872dd60e01b8152336004820152306024820152604481018390526001600160a01b03909116906323b872dd906064016020604051808303816000875af1158015610205573d6000803e3d6000fd5b505050506040513d601f19601f8201168201806040525081019061022991906107bf565b50600154604051630852cd8d60e31b8152600481018390526001600160a01b03909116906342966c6890602401600060405180830381600087803b15801561027057600080fd5b505af1158015610284573d6000803e3d6000fd5b505050507fbd50d681b2bac67feb8890ca1af2757f445e3b60a47a498fde58863ab21dc6aa816040516102b991815260200190565b60405180910390a150565b6002546001600160a01b031633146102ef57604051635c427cd960e01b815260040160405180910390fd5b6000816001600160801b0316116103425760405162461bcd60e51b81526020600482015260126024820152711253959053125117d352539517d31253525560721b60448201526064015b60405180910390fd5b60015460405163af93df5760e01b81523060048201526001600160801b03831660248201526001600160a01b039091169063af93df5790604401600060405180830381600087803b15801561039657600080fd5b505af11580156103aa573d6000803e3d6000fd5b5050505050565b6103b96105df565b6103c36000610639565b565b6103cd6105df565b600380546001600160a01b0319166001600160a01b0392909216919091179055565b6103f76105df565b600280546001600160a01b0319166001600160a01b0392909216919091179055565b6003546001600160a01b0316331461044457604051635c427cd960e01b815260040160405180910390fd5b6001546040516340c10f1960e01b81526001600160a01b03848116600483015260248201849052909116906340c10f1990604401600060405180830381600087803b15801561049257600080fd5b505af11580156104a6573d6000803e3d6000fd5b50505050816001600160a01b03167f0d53ae7024d83f2b5020a852cacfc94e7bc7b38589bfa80ac7ad78af47be5480826040516104e591815260200190565b60405180910390a25050565b6104f96105df565b600154604051637fc24def60e01b81526001600160a01b0390911690637fc24def9061052f9030908690869089906004016107e1565b600060405180830381600087803b15801561054957600080fd5b505af115801561055d573d6000803e3d6000fd5b50505050505050565b61056e6105df565b6001600160a01b0381166105d35760405162461bcd60e51b815260206004820152602660248201527f4f776e61626c653a206e6577206f776e657220697320746865207a65726f206160448201526564647265737360d01b6064820152608401610339565b6105dc81610639565b50565b6000546001600160a01b031633146103c35760405162461bcd60e51b815260206004820181905260248201527f4f776e61626c653a2063616c6c6572206973206e6f7420746865206f776e65726044820152606401610339565b600080546001600160a01b038381166001600160a01b0319831681178455604051919092169283917f8be0079c531659141344cd1fd0a4f28419497f9722a3daafe3b4186f6b6457e09190a35050565b60006020828403121561069b57600080fd5b5035919050565b80356001600160801b03811681146106b957600080fd5b919050565b6000602082840312156106d057600080fd5b6106d9826106a2565b9392505050565b80356001600160a01b03811681146106b957600080fd5b60006020828403121561070957600080fd5b6106d9826106e0565b6000806040838503121561072557600080fd5b61072e836106e0565b946020939093013593505050565b60008060006040848603121561075157600080fd5b61075a846106a2565b9250602084013567ffffffffffffffff8082111561077757600080fd5b818601915086601f83011261078b57600080fd5b81358181111561079a57600080fd5b8760208285010111156107ac57600080fd5b6020830194508093505050509250925092565b6000602082840312156107d157600080fd5b815180151581146106d957600080fd5b6001600160a01b038516815260606020820181905281018390528284608083013760006080848301015260006080601f19601f86011683010190506001600160801b03831660408301529594505050505056fea2646970667358221220d71cd4d5d78005f1debc7eefec4f41dfc8cf14b6f27ebd1795a80ff86f86878664736f6c634300080f0033",
    "linkReferences": {}
  },
  "methodIdentifiers": {
    "aaveGovernance()": "41b71d49",
    "addFaciliator(uint128,string)": "defdb73a",
    "bridge()": "e78cea92",
    "burn(uint256)": "42966c68",
    "ghoToken()": "5996db91",
    "onAxelarGmp(address,uint256)": "ca0b0a6c",
    "owner()": "8da5cb5b",
    "renounceOwnership()": "715018a6",
    "setAaveGov(address)": "8aded9d0",
    "setBridgeAddress(address)": "7f5a22f9",
    "transferOwnership(address)": "f2fde38b",
    "updateMintLimit(uint128)": "6af74a1a"
  },
  "id": 16
}